{
  "contractName": "Gouvernance",
  "abi": [
    {
      "constant": false,
      "inputs": [
        {
          "name": "exchange",
          "type": "uint8"
        },
        {
          "name": "poolType",
          "type": "uint8"
        }
      ],
      "name": "incrementPool",
      "outputs": [],
      "payable": false,
      "stateMutability": "nonpayable",
      "type": "function"
    },
    {
      "constant": false,
      "inputs": [
        {
          "name": "poolId",
          "type": "uint16"
        }
      ],
      "name": "endPool",
      "outputs": [],
      "payable": false,
      "stateMutability": "nonpayable",
      "type": "function"
    },
    {
      "constant": true,
      "inputs": [],
      "name": "getNbPools",
      "outputs": [
        {
          "name": "",
          "type": "uint256"
        }
      ],
      "payable": false,
      "stateMutability": "view",
      "type": "function"
    },
    {
      "constant": true,
      "inputs": [
        {
          "name": "index",
          "type": "uint8"
        }
      ],
      "name": "getMyPoolIdByIndex",
      "outputs": [
        {
          "name": "",
          "type": "uint16"
        }
      ],
      "payable": false,
      "stateMutability": "view",
      "type": "function"
    },
    {
      "constant": true,
      "inputs": [
        {
          "name": "index",
          "type": "uint8"
        }
      ],
      "name": "getUserPools",
      "outputs": [
        {
          "name": "",
          "type": "uint16"
        },
        {
          "name": "",
          "type": "uint8"
        }
      ],
      "payable": false,
      "stateMutability": "view",
      "type": "function"
    },
    {
      "constant": true,
      "inputs": [
        {
          "name": "poolId",
          "type": "uint256"
        }
      ],
      "name": "getRemainingTimePool",
      "outputs": [
        {
          "name": "time",
          "type": "uint256"
        }
      ],
      "payable": false,
      "stateMutability": "view",
      "type": "function"
    },
    {
      "constant": true,
      "inputs": [],
      "name": "owner",
      "outputs": [
        {
          "name": "",
          "type": "address"
        }
      ],
      "payable": false,
      "stateMutability": "view",
      "type": "function"
    },
    {
      "constant": true,
      "inputs": [],
      "name": "getNbPoolsPending",
      "outputs": [
        {
          "name": "",
          "type": "uint256"
        }
      ],
      "payable": false,
      "stateMutability": "view",
      "type": "function"
    },
    {
      "constant": true,
      "inputs": [],
      "name": "getUserPoolsNb",
      "outputs": [
        {
          "name": "",
          "type": "uint8"
        }
      ],
      "payable": false,
      "stateMutability": "view",
      "type": "function"
    },
    {
      "constant": true,
      "inputs": [
        {
          "name": "exchange",
          "type": "uint8"
        },
        {
          "name": "poolType",
          "type": "uint8"
        }
      ],
      "name": "findPoolAvailable",
      "outputs": [
        {
          "name": "",
          "type": "uint16"
        }
      ],
      "payable": false,
      "stateMutability": "view",
      "type": "function"
    },
    {
      "constant": false,
      "inputs": [
        {
          "name": "newOwner",
          "type": "address"
        }
      ],
      "name": "transferOwnership",
      "outputs": [],
      "payable": false,
      "stateMutability": "nonpayable",
      "type": "function"
    },
    {
      "constant": true,
      "inputs": [
        {
          "name": "",
          "type": "address"
        }
      ],
      "name": "pendingWithdrawals",
      "outputs": [
        {
          "name": "",
          "type": "uint256"
        }
      ],
      "payable": false,
      "stateMutability": "view",
      "type": "function"
    },
    {
      "anonymous": false,
      "inputs": [
        {
          "indexed": false,
          "name": "title",
          "type": "bytes32"
        },
        {
          "indexed": false,
          "name": "description",
          "type": "bytes32"
        }
      ],
      "name": "CreateSurvey",
      "type": "event"
    },
    {
      "constant": false,
      "inputs": [
        {
          "name": "title",
          "type": "bytes32"
        },
        {
          "name": "description",
          "type": "bytes32"
        },
        {
          "name": "exchange",
          "type": "uint8"
        }
      ],
      "name": "createSurvey",
      "outputs": [],
      "payable": false,
      "stateMutability": "nonpayable",
      "type": "function"
    },
    {
      "constant": false,
      "inputs": [
        {
          "name": "idSurvey",
          "type": "uint16"
        },
        {
          "name": "status",
          "type": "bool"
        }
      ],
      "name": "vote",
      "outputs": [],
      "payable": false,
      "stateMutability": "nonpayable",
      "type": "function"
    },
    {
      "constant": false,
      "inputs": [
        {
          "name": "idExchange",
          "type": "uint8"
        }
      ],
      "name": "hacking",
      "outputs": [],
      "payable": false,
      "stateMutability": "nonpayable",
      "type": "function"
    },
    {
      "constant": true,
      "inputs": [
        {
          "name": "index",
          "type": "uint256"
        }
      ],
      "name": "getSurvey",
      "outputs": [
        {
          "name": "",
          "type": "bytes32"
        },
        {
          "name": "",
          "type": "bytes32"
        }
      ],
      "payable": false,
      "stateMutability": "view",
      "type": "function"
    },
    {
      "constant": true,
      "inputs": [],
      "name": "getSurveysNb",
      "outputs": [
        {
          "name": "",
          "type": "uint256"
        }
      ],
      "payable": false,
      "stateMutability": "view",
      "type": "function"
    }
  ],
  "bytecode": "0x60806040526014600655336000806101000a81548173ffffffffffffffffffffffffffffffffffffffff021916908373ffffffffffffffffffffffffffffffffffffffff16021790555061146f806100586000396000f3fe608060405234801561001057600080fd5b506004361061010b5760003560e01c806389670e15116100a2578063d738d4b311610071578063d738d4b3146103ab578063d98a78d9146103e9578063f2fde38b14610443578063f3f4370314610487578063fa09dd82146104df5761010b565b806389670e15146102d65780638da5cb5b1461031f578063b23a94c814610369578063c98b9eb5146103875761010b565b8063590a10b6116100de578063590a10b6146101bc5780635da927cc146102095780636173480a1461026357806378407f40146102945761010b565b806319ec8a0a146101105780634ecf40331461012e5780634ee4e5341461016c57806352918b761461019e575b600080fd5b610118610524565b6040518082815260200191505060405180910390f35b61016a6004803603604081101561014457600080fd5b81019080803560ff169060200190929190803560ff169060200190929190505050610531565b005b61019c6004803603602081101561018257600080fd5b81019080803561ffff16906020019092919050505061065c565b005b6101a66107b8565b6040518082815260200191505060405180910390f35b6101eb600480360360208110156101d257600080fd5b81019080803560ff1690602001909291905050506107c5565b604051808261ffff1661ffff16815260200191505060405180910390f35b6102386004803603602081101561021f57600080fd5b81019080803560ff169060200190929190505050610839565b604051808361ffff1661ffff1681526020018260ff1660ff1681526020019250505060405180910390f35b6102926004803603602081101561027957600080fd5b81019080803560ff16906020019092919050505061091a565b005b6102c0600480360360208110156102aa57600080fd5b8101908080359060200190929190505050610990565b6040518082815260200191505060405180910390f35b610302600480360360208110156102ec57600080fd5b81019080803590602001909291905050506109af565b604051808381526020018281526020019250505060405180910390f35b6103276109f9565b604051808273ffffffffffffffffffffffffffffffffffffffff1673ffffffffffffffffffffffffffffffffffffffff16815260200191505060405180910390f35b610371610a1e565b6040518082815260200191505060405180910390f35b61038f610bb0565b604051808260ff1660ff16815260200191505060405180910390f35b6103e7600480360360408110156103c157600080fd5b81019080803561ffff169060200190929190803515159060200190929190505050610c07565b005b610425600480360360408110156103ff57600080fd5b81019080803560ff169060200190929190803560ff169060200190929190505050610d87565b604051808261ffff1661ffff16815260200191505060405180910390f35b6104856004803603602081101561045957600080fd5b81019080803573ffffffffffffffffffffffffffffffffffffffff169060200190929190505050610ef8565b005b6104c96004803603602081101561049d57600080fd5b81019080803573ffffffffffffffffffffffffffffffffffffffff169060200190929190505050610fce565b6040518082815260200191505060405180910390f35b610522600480360360608110156104f557600080fd5b810190808035906020019092919080359060200190929190803560ff169060200190929190505050610fe6565b005b6000600780549050905090565b6000600161053d6107b8565b019050606060016040519080825280602002602001820160405280156105725781602001602082028038833980820191505090505b509050838160008151811061058357fe5b602002602001019060ff16908160ff168152505061059f61128a565b60405180606001604052808461ffff1681526020018560ff1681526020018381525090506001819080600181540180825580915050906001820390600052602060002090600202016000909192909190915060008201518160000160006101000a81548161ffff021916908361ffff16021790555060208201518160000160026101000a81548160ff021916908360ff16021790555060408201518160010190805190602001906106519291906112b2565b505050505050505050565b6000809054906101000a900473ffffffffffffffffffffffffffffffffffffffff1673ffffffffffffffffffffffffffffffffffffffff163373ffffffffffffffffffffffffffffffffffffffff16146106b557600080fd5b60006106c48261ffff16610990565b905060065481116106d457600080fd5b6060600460008461ffff16815260200190815260200160002080548060200260200160405190810160405280929190818152602001828054801561076d57602002820191906000526020600020905b8160009054906101000a900473ffffffffffffffffffffffffffffffffffffffff1673ffffffffffffffffffffffffffffffffffffffff1681526020019060010190808311610723575b5050505050905060008090505b81518110156107b257600082828151811061079157fe5b602002602001015190506107a48161115d565b50808060010191505061077a565b50505050565b6000600180549050905090565b6000600360003373ffffffffffffffffffffffffffffffffffffffff1673ffffffffffffffffffffffffffffffffffffffff16815260200190815260200160002060000160008360ff1660ff16815260200190815260200160002060000160009054906101000a900461ffff169050919050565b600080600360003373ffffffffffffffffffffffffffffffffffffffff1673ffffffffffffffffffffffffffffffffffffffff16815260200190815260200160002060000160008460ff1660ff16815260200190815260200160002060000160009054906101000a900461ffff16600360003373ffffffffffffffffffffffffffffffffffffffff1673ffffffffffffffffffffffffffffffffffffffff16815260200190815260200160002060000160008560ff1660ff16815260200190815260200160002060000160029054906101000a900460ff1691509150915091565b600860405180604001604052808360ff168152602001428152509080600181540180825580915050906001820390600052602060002090600202016000909192909190915060008201518160000160006101000a81548160ff021916908360ff1602179055506020820151816001015550505050565b6000600260008381526020019081526020016000205442039050919050565b600080600783815481106109bf57fe5b906000526020600020906005020160010154600784815481106109de57fe5b90600052602060002090600502016001015491509150915091565b6000809054906101000a900473ffffffffffffffffffffffffffffffffffffffff1681565b60006060600180549050604051908082528060200260200182016040528015610a6157816020015b610a4e611359565b815260200190600190039081610a465790505b50905060008090505b600180549050811015610ba757600a60018281548110610a8657fe5b9060005260206000209060020201600101805490501015610b9a5760018181548110610aae57fe5b90600052602060002090600202016040518060600160405290816000820160009054906101000a900461ffff1661ffff1661ffff1681526020016000820160029054906101000a900460ff1660ff1660ff16815260200160018201805480602002602001604051908101604052809291908181526020018280548015610b7957602002820191906000526020600020906000905b82829054906101000a900460ff1660ff1681526020019060010190602082600001049283019260010382029150808411610b425790505b505050505081525050828281518110610b8e57fe5b60200260200101819052505b8080600101915050610a6a565b50805191505090565b6000600360003373ffffffffffffffffffffffffffffffffffffffff1673ffffffffffffffffffffffffffffffffffffffff16815260200190815260200160002060020160009054906101000a900460ff16905090565b60405180604001604052808361ffff168152602001821515815250600360003373ffffffffffffffffffffffffffffffffffffffff1673ffffffffffffffffffffffffffffffffffffffff1681526020019081526020016000206001016000600360003373ffffffffffffffffffffffffffffffffffffffff1673ffffffffffffffffffffffffffffffffffffffff16815260200190815260200160002060020160019054906101000a900460ff1660ff1661ffff16815260200190815260200160002060008201518160000160006101000a81548161ffff021916908361ffff16021790555060208201518160000160026101000a81548160ff021916908315150217905550905050600360003373ffffffffffffffffffffffffffffffffffffffff1673ffffffffffffffffffffffffffffffffffffffff168152602001908152602001600020600201600181819054906101000a900460ff168092919060010191906101000a81548160ff021916908360ff160217905550505050565b6000806000905060008090505b600180549050811015610eeb5760019150600a60018281548110610db457fe5b9060005260206000209060020201600101805490501015610ede578360ff1660018281548110610de057fe5b906000526020600020906002020160000160029054906101000a900460ff1660ff161415610edd5760008090505b60018281548110610e1b57fe5b906000526020600020906002020160010180549050811015610e9f578560ff1660018381548110610e4857fe5b90600052602060002090600202016001018281548110610e6457fe5b90600052602060002090602091828204019190069054906101000a900460ff1660ff161415610e9257600092505b8080600101915050610e0e565b508115610edc5760018181548110610eb357fe5b906000526020600020906002020160000160009054906101000a900461ffff1692505050610ef2565b5b5b8080600101915050610d94565b5060009150505b92915050565b6000809054906101000a900473ffffffffffffffffffffffffffffffffffffffff1673ffffffffffffffffffffffffffffffffffffffff163373ffffffffffffffffffffffffffffffffffffffff1614610f5157600080fd5b600073ffffffffffffffffffffffffffffffffffffffff168173ffffffffffffffffffffffffffffffffffffffff161415610f8b57600080fd5b806000806101000a81548173ffffffffffffffffffffffffffffffffffffffff021916908373ffffffffffffffffffffffffffffffffffffffff16021790555050565b60056020528060005260406000206000915090505481565b6000809054906101000a900473ffffffffffffffffffffffffffffffffffffffff1673ffffffffffffffffffffffffffffffffffffffff163373ffffffffffffffffffffffffffffffffffffffff161461103f57600080fd5b600780548091906001016110539190611381565b5060076040518060a0016040528060078054905061ffff1681526020018581526020018481526020018360ff168152602001428152509080600181540180825580915050906001820390600052602060002090600502016000909192909190915060008201518160000160006101000a81548161ffff021916908361ffff160217905550602082015181600101556040820151816002015560608201518160030160006101000a81548160ff021916908360ff160217905550608082015181600401555050507f5818e0b69e7690059777ad0e0cd1047d0589b268e15cd877ee370430e694f5308383604051808381526020018281526020019250505060405180910390a1505050565b6000809054906101000a900473ffffffffffffffffffffffffffffffffffffffff1673ffffffffffffffffffffffffffffffffffffffff163373ffffffffffffffffffffffffffffffffffffffff16146111b657600080fd5b6000600560008373ffffffffffffffffffffffffffffffffffffffff1673ffffffffffffffffffffffffffffffffffffffff1681526020019081526020016000205490506000600560008473ffffffffffffffffffffffffffffffffffffffff1673ffffffffffffffffffffffffffffffffffffffff168152602001908152602001600020819055508173ffffffffffffffffffffffffffffffffffffffff166108fc829081150290604051600060405180830381858888f19350505050158015611285573d6000803e3d6000fd5b505050565b6040518060600160405280600061ffff168152602001600060ff168152602001606081525090565b82805482825590600052602060002090601f016020900481019282156113485791602002820160005b8382111561131957835183826101000a81548160ff021916908360ff16021790555092602001926001016020816000010492830192600103026112db565b80156113465782816101000a81549060ff0219169055600101602081600001049283019260010302611319565b505b50905061135591906113b3565b5090565b6040518060600160405280600061ffff168152602001600060ff168152602001606081525090565b8154818355818111156113ae576005028160050283600052602060002091820191016113ad91906113e3565b5b505050565b6113e091905b808211156113dc57600081816101000a81549060ff0219169055506001016113b9565b5090565b90565b61144091905b8082111561143c57600080820160006101000a81549061ffff0219169055600182016000905560028201600090556003820160006101000a81549060ff02191690556004820160009055506005016113e9565b5090565b9056fea165627a7a72305820244e1d0c626048b36f119630820612dc2ce44b077a854a7028ff19d0fb7e49370029",
  "source": "pragma solidity >=0.4.25 <0.6.0;\n\nimport \"./Pool.sol\";\n\ncontract Gouvernance is Pool {\n\n    Survey[] surveys;\n\tHacking[] hackings;\n\n    event CreateSurvey(bytes32 title, bytes32 description);\n\n\tfunction createSurvey(bytes32 title, bytes32 description, uint8 exchange) external onlyOwner() {\n\t    surveys.length++;\n\t\tsurveys.push(Survey(uint16(surveys.length), title, description, exchange, now));\n\t\temit CreateSurvey(title, description);\n\t}\n\n\tfunction vote(uint16 idSurvey, bool status) external {\n\t    user[msg.sender].userVotes[user[msg.sender].userVotesSize] = Vote(idSurvey, status);\n\t    user[msg.sender].userVotesSize++;\n\t}\n\n\tfunction hacking(uint8 idExchange) external {\n\t\thackings.push(Hacking(idExchange, now));\n\t}\n\n\tfunction getHackings(uint index) internal view returns(uint8, uint) {\n\t\treturn (hackings[index].idExchange, hackings[index].date);\n\t}\n\n\tfunction getSurvey(uint index) external view returns(bytes32, bytes32) {\n\t    return (surveys[index].title, surveys[index].title);\n\t}\n\n    function getSurveysNb() external view returns(uint) {\n        return surveys.length;\n    }\n}\n",
  "sourcePath": "/Users/anthonycohen/Projects/Insurance-pool/contracts/Gouvernance.sol",
  "compiler": {
    "name": "solc",
    "version": "0.5.8+commit.23d335f2.Emscripten.clang"
  },
  "schemaVersion": "3.0.10",
  "updatedAt": "2020-02-09T11:31:44.527Z",
  "devdoc": {
    "methods": {}
  },
  "userdoc": {
    "methods": {}
  }
}