{
  "contractName": "Insurance",
  "abi": [
    {
      "constant": true,
      "inputs": [],
      "name": "getSurveysNb",
      "outputs": [
        {
          "name": "",
          "type": "uint256"
        }
      ],
      "payable": false,
      "stateMutability": "view",
      "type": "function"
    },
    {
      "constant": false,
      "inputs": [
        {
          "name": "exchange",
          "type": "uint8"
        },
        {
          "name": "poolType",
          "type": "uint8"
        }
      ],
      "name": "incrementPool",
      "outputs": [],
      "payable": false,
      "stateMutability": "nonpayable",
      "type": "function"
    },
    {
      "constant": false,
      "inputs": [
        {
          "name": "poolId",
          "type": "uint16"
        }
      ],
      "name": "endPool",
      "outputs": [],
      "payable": false,
      "stateMutability": "nonpayable",
      "type": "function"
    },
    {
      "constant": true,
      "inputs": [],
      "name": "getNbPools",
      "outputs": [
        {
          "name": "",
          "type": "uint256"
        }
      ],
      "payable": false,
      "stateMutability": "view",
      "type": "function"
    },
    {
      "constant": true,
      "inputs": [
        {
          "name": "index",
          "type": "uint8"
        }
      ],
      "name": "getMyPoolIdByIndex",
      "outputs": [
        {
          "name": "",
          "type": "uint16"
        }
      ],
      "payable": false,
      "stateMutability": "view",
      "type": "function"
    },
    {
      "constant": true,
      "inputs": [
        {
          "name": "index",
          "type": "uint8"
        }
      ],
      "name": "getUserPools",
      "outputs": [
        {
          "name": "",
          "type": "uint16"
        },
        {
          "name": "",
          "type": "uint8"
        }
      ],
      "payable": false,
      "stateMutability": "view",
      "type": "function"
    },
    {
      "constant": false,
      "inputs": [
        {
          "name": "idExchange",
          "type": "uint8"
        }
      ],
      "name": "hacking",
      "outputs": [],
      "payable": false,
      "stateMutability": "nonpayable",
      "type": "function"
    },
    {
      "constant": true,
      "inputs": [
        {
          "name": "poolId",
          "type": "uint256"
        }
      ],
      "name": "getRemainingTimePool",
      "outputs": [
        {
          "name": "time",
          "type": "uint256"
        }
      ],
      "payable": false,
      "stateMutability": "view",
      "type": "function"
    },
    {
      "constant": true,
      "inputs": [
        {
          "name": "index",
          "type": "uint256"
        }
      ],
      "name": "getSurvey",
      "outputs": [
        {
          "name": "",
          "type": "bytes32"
        },
        {
          "name": "",
          "type": "bytes32"
        }
      ],
      "payable": false,
      "stateMutability": "view",
      "type": "function"
    },
    {
      "constant": true,
      "inputs": [],
      "name": "owner",
      "outputs": [
        {
          "name": "",
          "type": "address"
        }
      ],
      "payable": false,
      "stateMutability": "view",
      "type": "function"
    },
    {
      "constant": true,
      "inputs": [],
      "name": "getNbPoolsPending",
      "outputs": [
        {
          "name": "",
          "type": "uint256"
        }
      ],
      "payable": false,
      "stateMutability": "view",
      "type": "function"
    },
    {
      "constant": true,
      "inputs": [],
      "name": "getUserPoolsNb",
      "outputs": [
        {
          "name": "",
          "type": "uint8"
        }
      ],
      "payable": false,
      "stateMutability": "view",
      "type": "function"
    },
    {
      "constant": false,
      "inputs": [
        {
          "name": "idSurvey",
          "type": "uint16"
        },
        {
          "name": "status",
          "type": "bool"
        }
      ],
      "name": "vote",
      "outputs": [],
      "payable": false,
      "stateMutability": "nonpayable",
      "type": "function"
    },
    {
      "constant": true,
      "inputs": [
        {
          "name": "exchange",
          "type": "uint8"
        },
        {
          "name": "poolType",
          "type": "uint8"
        }
      ],
      "name": "findPoolAvailable",
      "outputs": [
        {
          "name": "",
          "type": "uint16"
        }
      ],
      "payable": false,
      "stateMutability": "view",
      "type": "function"
    },
    {
      "constant": false,
      "inputs": [
        {
          "name": "newOwner",
          "type": "address"
        }
      ],
      "name": "transferOwnership",
      "outputs": [],
      "payable": false,
      "stateMutability": "nonpayable",
      "type": "function"
    },
    {
      "constant": true,
      "inputs": [
        {
          "name": "",
          "type": "address"
        }
      ],
      "name": "pendingWithdrawals",
      "outputs": [
        {
          "name": "",
          "type": "uint256"
        }
      ],
      "payable": false,
      "stateMutability": "view",
      "type": "function"
    },
    {
      "constant": false,
      "inputs": [
        {
          "name": "title",
          "type": "bytes32"
        },
        {
          "name": "description",
          "type": "bytes32"
        },
        {
          "name": "exchange",
          "type": "uint8"
        }
      ],
      "name": "createSurvey",
      "outputs": [],
      "payable": false,
      "stateMutability": "nonpayable",
      "type": "function"
    },
    {
      "anonymous": false,
      "inputs": [
        {
          "indexed": false,
          "name": "_transferFrom",
          "type": "address"
        },
        {
          "indexed": false,
          "name": "amount",
          "type": "uint256"
        }
      ],
      "name": "TransferFund",
      "type": "event"
    },
    {
      "anonymous": false,
      "inputs": [
        {
          "indexed": false,
          "name": "idExchange",
          "type": "uint256"
        },
        {
          "indexed": false,
          "name": "balance",
          "type": "uint256"
        }
      ],
      "name": "UpdateBalanceExchange",
      "type": "event"
    },
    {
      "anonymous": false,
      "inputs": [
        {
          "indexed": false,
          "name": "title",
          "type": "bytes32"
        },
        {
          "indexed": false,
          "name": "description",
          "type": "bytes32"
        }
      ],
      "name": "CreateSurvey",
      "type": "event"
    },
    {
      "constant": false,
      "inputs": [
        {
          "name": "exchange",
          "type": "uint8"
        },
        {
          "name": "poolType",
          "type": "uint8"
        }
      ],
      "name": "transferFund",
      "outputs": [
        {
          "name": "",
          "type": "bool"
        }
      ],
      "payable": true,
      "stateMutability": "payable",
      "type": "function"
    },
    {
      "constant": true,
      "inputs": [],
      "name": "getBalance",
      "outputs": [
        {
          "name": "",
          "type": "uint256"
        }
      ],
      "payable": false,
      "stateMutability": "view",
      "type": "function"
    }
  ],
  "bytecode": "0x60806040526014600655336000806101000a81548173ffffffffffffffffffffffffffffffffffffffff021916908373ffffffffffffffffffffffffffffffffffffffff160217905550611b18806100586000396000f3fe6080604052600436106101145760003560e01c806389670e15116100a0578063d738d4b311610064578063d738d4b3146104d1578063d98a78d91461051c578063f2fde38b14610583578063f3f43703146105d4578063fa09dd821461063957610114565b806389670e15146103725780638da5cb5b146103c8578063b23a94c81461041f578063bc405fc21461044a578063c98b9eb5146104a057610114565b806352918b76116100e757806352918b76146101f9578063590a10b6146102245780635da927cc1461027e5780636173480a146102e557806378407f401461032357610114565b806312065fe01461011957806319ec8a0a146101445780634ecf40331461016f5780634ee4e534146101ba575b600080fd5b34801561012557600080fd5b5061012e61068b565b6040518082815260200191505060405180910390f35b34801561015057600080fd5b506101596106aa565b6040518082815260200191505060405180910390f35b34801561017b57600080fd5b506101b86004803603604081101561019257600080fd5b81019080803560ff169060200190929190803560ff1690602001909291905050506106b7565b005b3480156101c657600080fd5b506101f7600480360360208110156101dd57600080fd5b81019080803561ffff1690602001909291905050506107e2565b005b34801561020557600080fd5b5061020e61093e565b6040518082815260200191505060405180910390f35b34801561023057600080fd5b506102606004803603602081101561024757600080fd5b81019080803560ff16906020019092919050505061094b565b604051808261ffff1661ffff16815260200191505060405180910390f35b34801561028a57600080fd5b506102ba600480360360208110156102a157600080fd5b81019080803560ff1690602001909291905050506109bf565b604051808361ffff1661ffff1681526020018260ff1660ff1681526020019250505060405180910390f35b3480156102f157600080fd5b506103216004803603602081101561030857600080fd5b81019080803560ff169060200190929190505050610aa0565b005b34801561032f57600080fd5b5061035c6004803603602081101561034657600080fd5b8101908080359060200190929190505050610b16565b6040518082815260200191505060405180910390f35b34801561037e57600080fd5b506103ab6004803603602081101561039557600080fd5b8101908080359060200190929190505050610b35565b604051808381526020018281526020019250505060405180910390f35b3480156103d457600080fd5b506103dd610b7f565b604051808273ffffffffffffffffffffffffffffffffffffffff1673ffffffffffffffffffffffffffffffffffffffff16815260200191505060405180910390f35b34801561042b57600080fd5b50610434610ba4565b6040518082815260200191505060405180910390f35b6104866004803603604081101561046057600080fd5b81019080803560ff169060200190929190803560ff169060200190929190505050610d36565b604051808215151515815260200191505060405180910390f35b3480156104ac57600080fd5b506104b5610df8565b604051808260ff1660ff16815260200191505060405180910390f35b3480156104dd57600080fd5b5061051a600480360360408110156104f457600080fd5b81019080803561ffff169060200190929190803515159060200190929190505050610e4f565b005b34801561052857600080fd5b506105656004803603604081101561053f57600080fd5b81019080803560ff169060200190929190803560ff169060200190929190505050610fcf565b604051808261ffff1661ffff16815260200191505060405180910390f35b34801561058f57600080fd5b506105d2600480360360208110156105a657600080fd5b81019080803573ffffffffffffffffffffffffffffffffffffffff169060200190929190505050611140565b005b3480156105e057600080fd5b50610623600480360360208110156105f757600080fd5b81019080803573ffffffffffffffffffffffffffffffffffffffff169060200190929190505050611216565b6040518082815260200191505060405180910390f35b34801561064557600080fd5b506106896004803603606081101561065c57600080fd5b810190808035906020019092919080359060200190929190803560ff16906020019092919050505061122e565b005b60003073ffffffffffffffffffffffffffffffffffffffff1631905090565b6000600780549050905090565b600060016106c361093e565b019050606060016040519080825280602002602001820160405280156106f85781602001602082028038833980820191505090505b509050838160008151811061070957fe5b602002602001019060ff16908160ff1681525050610725611933565b60405180606001604052808461ffff1681526020018560ff1681526020018381525090506001819080600181540180825580915050906001820390600052602060002090600202016000909192909190915060008201518160000160006101000a81548161ffff021916908361ffff16021790555060208201518160000160026101000a81548160ff021916908360ff16021790555060408201518160010190805190602001906107d792919061195b565b505050505050505050565b6000809054906101000a900473ffffffffffffffffffffffffffffffffffffffff1673ffffffffffffffffffffffffffffffffffffffff163373ffffffffffffffffffffffffffffffffffffffff161461083b57600080fd5b600061084a8261ffff16610b16565b9050600654811161085a57600080fd5b6060600460008461ffff1681526020019081526020016000208054806020026020016040519081016040528092919081815260200182805480156108f357602002820191906000526020600020905b8160009054906101000a900473ffffffffffffffffffffffffffffffffffffffff1673ffffffffffffffffffffffffffffffffffffffff16815260200190600101908083116108a9575b5050505050905060008090505b815181101561093857600082828151811061091757fe5b6020026020010151905061092a816113a5565b508080600101915050610900565b50505050565b6000600180549050905090565b6000600360003373ffffffffffffffffffffffffffffffffffffffff1673ffffffffffffffffffffffffffffffffffffffff16815260200190815260200160002060000160008360ff1660ff16815260200190815260200160002060000160009054906101000a900461ffff169050919050565b600080600360003373ffffffffffffffffffffffffffffffffffffffff1673ffffffffffffffffffffffffffffffffffffffff16815260200190815260200160002060000160008460ff1660ff16815260200190815260200160002060000160009054906101000a900461ffff16600360003373ffffffffffffffffffffffffffffffffffffffff1673ffffffffffffffffffffffffffffffffffffffff16815260200190815260200160002060000160008560ff1660ff16815260200190815260200160002060000160029054906101000a900460ff1691509150915091565b600860405180604001604052808360ff168152602001428152509080600181540180825580915050906001820390600052602060002090600202016000909192909190915060008201518160000160006101000a81548160ff021916908360ff1602179055506020820151816001015550505050565b6000600260008381526020019081526020016000205442039050919050565b60008060078381548110610b4557fe5b90600052602060002090600502016001015460078481548110610b6457fe5b90600052602060002090600502016001015491509150915091565b6000809054906101000a900473ffffffffffffffffffffffffffffffffffffffff1681565b60006060600180549050604051908082528060200260200182016040528015610be757816020015b610bd4611a02565b815260200190600190039081610bcc5790505b50905060008090505b600180549050811015610d2d57600a60018281548110610c0c57fe5b9060005260206000209060020201600101805490501015610d205760018181548110610c3457fe5b90600052602060002090600202016040518060600160405290816000820160009054906101000a900461ffff1661ffff1661ffff1681526020016000820160029054906101000a900460ff1660ff1660ff16815260200160018201805480602002602001604051908101604052809291908181526020018280548015610cff57602002820191906000526020600020906000905b82829054906101000a900460ff1660ff1681526020019060010190602082600001049283019260010382029150808411610cc85790505b505050505081525050828281518110610d1457fe5b60200260200101819052505b8080600101915050610bf0565b50805191505090565b600080610d4384846114d2565b9050610da08482600360003373ffffffffffffffffffffffffffffffffffffffff1673ffffffffffffffffffffffffffffffffffffffff16815260200190815260200160002060020160009054906101000a900460ff1633611533565b34600560003373ffffffffffffffffffffffffffffffffffffffff1673ffffffffffffffffffffffffffffffffffffffff16815260200190815260200160002060008282540192505081905550600191505092915050565b6000600360003373ffffffffffffffffffffffffffffffffffffffff1673ffffffffffffffffffffffffffffffffffffffff16815260200190815260200160002060020160009054906101000a900460ff16905090565b60405180604001604052808361ffff168152602001821515815250600360003373ffffffffffffffffffffffffffffffffffffffff1673ffffffffffffffffffffffffffffffffffffffff1681526020019081526020016000206001016000600360003373ffffffffffffffffffffffffffffffffffffffff1673ffffffffffffffffffffffffffffffffffffffff16815260200190815260200160002060020160019054906101000a900460ff1660ff1661ffff16815260200190815260200160002060008201518160000160006101000a81548161ffff021916908361ffff16021790555060208201518160000160026101000a81548160ff021916908315150217905550905050600360003373ffffffffffffffffffffffffffffffffffffffff1673ffffffffffffffffffffffffffffffffffffffff168152602001908152602001600020600201600181819054906101000a900460ff168092919060010191906101000a81548160ff021916908360ff160217905550505050565b6000806000905060008090505b6001805490508110156111335760019150600a60018281548110610ffc57fe5b9060005260206000209060020201600101805490501015611126578360ff166001828154811061102857fe5b906000526020600020906002020160000160029054906101000a900460ff1660ff1614156111255760008090505b6001828154811061106357fe5b9060005260206000209060020201600101805490508110156110e7578560ff166001838154811061109057fe5b906000526020600020906002020160010182815481106110ac57fe5b90600052602060002090602091828204019190069054906101000a900460ff1660ff1614156110da57600092505b8080600101915050611056565b50811561112457600181815481106110fb57fe5b906000526020600020906002020160000160009054906101000a900461ffff169250505061113a565b5b5b8080600101915050610fdc565b5060009150505b92915050565b6000809054906101000a900473ffffffffffffffffffffffffffffffffffffffff1673ffffffffffffffffffffffffffffffffffffffff163373ffffffffffffffffffffffffffffffffffffffff161461119957600080fd5b600073ffffffffffffffffffffffffffffffffffffffff168173ffffffffffffffffffffffffffffffffffffffff1614156111d357600080fd5b806000806101000a81548173ffffffffffffffffffffffffffffffffffffffff021916908373ffffffffffffffffffffffffffffffffffffffff16021790555050565b60056020528060005260406000206000915090505481565b6000809054906101000a900473ffffffffffffffffffffffffffffffffffffffff1673ffffffffffffffffffffffffffffffffffffffff163373ffffffffffffffffffffffffffffffffffffffff161461128757600080fd5b6007805480919060010161129b9190611a2a565b5060076040518060a0016040528060078054905061ffff1681526020018581526020018481526020018360ff168152602001428152509080600181540180825580915050906001820390600052602060002090600502016000909192909190915060008201518160000160006101000a81548161ffff021916908361ffff160217905550602082015181600101556040820151816002015560608201518160030160006101000a81548160ff021916908360ff160217905550608082015181600401555050507f5818e0b69e7690059777ad0e0cd1047d0589b268e15cd877ee370430e694f5308383604051808381526020018281526020019250505060405180910390a1505050565b6000809054906101000a900473ffffffffffffffffffffffffffffffffffffffff1673ffffffffffffffffffffffffffffffffffffffff163373ffffffffffffffffffffffffffffffffffffffff16146113fe57600080fd5b6000600560008373ffffffffffffffffffffffffffffffffffffffff1673ffffffffffffffffffffffffffffffffffffffff1681526020019081526020016000205490506000600560008473ffffffffffffffffffffffffffffffffffffffff1673ffffffffffffffffffffffffffffffffffffffff168152602001908152602001600020819055508173ffffffffffffffffffffffffffffffffffffffff166108fc829081150290604051600060405180830381858888f193505050501580156114cd573d6000803e3d6000fd5b505050565b6000806114df8484610fcf565b905060008161ffff1614156114ff576114f884846116e2565b905061150a565b6115098482611813565b5b60036115198261ffff16611881565b14156115295761152881611910565b5b8091505092915050565b60405180604001604052808461ffff1681526020018560ff16815250600360003373ffffffffffffffffffffffffffffffffffffffff1673ffffffffffffffffffffffffffffffffffffffff16815260200190815260200160002060000160008460ff1660ff16815260200190815260200160002060008201518160000160006101000a81548161ffff021916908361ffff16021790555060208201518160000160026101000a81548160ff021916908360ff160217905550905050600360003373ffffffffffffffffffffffffffffffffffffffff1673ffffffffffffffffffffffffffffffffffffffff168152602001908152602001600020600201600081819054906101000a900460ff168092919060010191906101000a81548160ff021916908360ff16021790555050600460008461ffff1681526020019081526020016000208190806001815401808255809150509060018203906000526020600020016000909192909190916101000a81548173ffffffffffffffffffffffffffffffffffffffff021916908373ffffffffffffffffffffffffffffffffffffffff1602179055505050505050565b60008060016116ef61093e565b019050606060016040519080825280602002602001820160405280156117245781602001602082028038833980820191505090505b509050848160008151811061173557fe5b602002602001019060ff16908160ff1681525050611751611933565b60405180606001604052808461ffff1681526020018660ff1681526020018381525090506001819080600181540180825580915050906001820390600052602060002090600202016000909192909190915060008201518160000160006101000a81548161ffff021916908361ffff16021790555060208201518160000160026101000a81548160ff021916908360ff160217905550604082015181600101908051906020019061180392919061195b565b5050505082935050505092915050565b600180820361ffff168154811061182657fe5b906000526020600020906002020160010182908060018154018082558091505090600182039060005260206000209060209182820401919006909192909190916101000a81548160ff021916908360ff160217905550505050565b600080600090505b6001805490508110156119055782600182815481106118a457fe5b906000526020600020906002020160000160009054906101000a900461ffff1661ffff1614156118f857600181815481106118db57fe5b90600052602060002090600202016001018054905091505061190b565b8080600101915050611889565b50600090505b919050565b6006544201600260008361ffff1681526020019081526020016000208190555050565b6040518060600160405280600061ffff168152602001600060ff168152602001606081525090565b82805482825590600052602060002090601f016020900481019282156119f15791602002820160005b838211156119c257835183826101000a81548160ff021916908360ff1602179055509260200192600101602081600001049283019260010302611984565b80156119ef5782816101000a81549060ff02191690556001016020816000010492830192600103026119c2565b505b5090506119fe9190611a5c565b5090565b6040518060600160405280600061ffff168152602001600060ff168152602001606081525090565b815481835581811115611a5757600502816005028360005260206000209182019101611a569190611a8c565b5b505050565b611a8991905b80821115611a8557600081816101000a81549060ff021916905550600101611a62565b5090565b90565b611ae991905b80821115611ae557600080820160006101000a81549061ffff0219169055600182016000905560028201600090556003820160006101000a81549060ff0219169055600482016000905550600501611a92565b5090565b9056fea165627a7a7230582001ed87e7010ef7bc97d916911838a95133da51653b1151df27f5a8ab69c510000029",
  "source": "pragma solidity >=0.4.25 <0.6.0;\n\nimport \"./Gouvernance.sol\";\nimport \"./Owned.sol\";\n\ncontract Insurance is Gouvernance {\n\n\tevent TransferFund(address _transferFrom, uint amount);\n\tevent UpdateBalanceExchange(uint idExchange, uint balance);\n\n\tfunction transferFund(uint8 exchange, uint8 poolType) external payable returns (bool) {\n        uint16 poolId = joinPool(exchange, poolType);\n        updateUserPools(exchange, poolId, user[msg.sender].userPoolsSize, msg.sender);\n        pendingWithdrawals[msg.sender] += msg.value;\n\t\treturn true;\n    }\n\n\tfunction getBalance() external view returns (uint) {\n\t\treturn address(this).balance;\n\t}\n}\n",
  "sourcePath": "/Users/anthonycohen/Projects/Insurance-pool/contracts/Insurance.sol",
  "compiler": {
    "name": "solc",
    "version": "0.5.8+commit.23d335f2.Emscripten.clang"
  },
  "schemaVersion": "3.0.10",
  "updatedAt": "2020-02-09T11:31:44.529Z",
  "devdoc": {
    "methods": {}
  },
  "userdoc": {
    "methods": {}
  }
}