{
  "contractName": "Pool",
  "abi": [
    {
      "constant": true,
      "inputs": [],
      "name": "owner",
      "outputs": [
        {
          "name": "",
          "type": "address"
        }
      ],
      "payable": false,
      "stateMutability": "view",
      "type": "function"
    },
    {
      "constant": false,
      "inputs": [
        {
          "name": "newOwner",
          "type": "address"
        }
      ],
      "name": "transferOwnership",
      "outputs": [],
      "payable": false,
      "stateMutability": "nonpayable",
      "type": "function"
    },
    {
      "constant": true,
      "inputs": [
        {
          "name": "",
          "type": "address"
        }
      ],
      "name": "pendingWithdrawals",
      "outputs": [
        {
          "name": "",
          "type": "uint256"
        }
      ],
      "payable": false,
      "stateMutability": "view",
      "type": "function"
    },
    {
      "constant": false,
      "inputs": [
        {
          "name": "exchange",
          "type": "uint8"
        },
        {
          "name": "poolType",
          "type": "uint8"
        }
      ],
      "name": "incrementPool",
      "outputs": [],
      "payable": false,
      "stateMutability": "nonpayable",
      "type": "function"
    },
    {
      "constant": true,
      "inputs": [
        {
          "name": "exchange",
          "type": "uint8"
        },
        {
          "name": "poolType",
          "type": "uint8"
        }
      ],
      "name": "findPoolAvailable",
      "outputs": [
        {
          "name": "",
          "type": "uint16"
        }
      ],
      "payable": false,
      "stateMutability": "view",
      "type": "function"
    },
    {
      "constant": false,
      "inputs": [
        {
          "name": "poolId",
          "type": "uint16"
        }
      ],
      "name": "endPool",
      "outputs": [],
      "payable": false,
      "stateMutability": "nonpayable",
      "type": "function"
    },
    {
      "constant": true,
      "inputs": [
        {
          "name": "poolId",
          "type": "uint256"
        }
      ],
      "name": "getRemainingTimePool",
      "outputs": [
        {
          "name": "time",
          "type": "uint256"
        }
      ],
      "payable": false,
      "stateMutability": "view",
      "type": "function"
    },
    {
      "constant": true,
      "inputs": [],
      "name": "getUserPoolsNb",
      "outputs": [
        {
          "name": "",
          "type": "uint8"
        }
      ],
      "payable": false,
      "stateMutability": "view",
      "type": "function"
    },
    {
      "constant": true,
      "inputs": [
        {
          "name": "index",
          "type": "uint8"
        }
      ],
      "name": "getUserPools",
      "outputs": [
        {
          "name": "",
          "type": "uint16"
        },
        {
          "name": "",
          "type": "uint8"
        }
      ],
      "payable": false,
      "stateMutability": "view",
      "type": "function"
    },
    {
      "constant": true,
      "inputs": [],
      "name": "getNbPools",
      "outputs": [
        {
          "name": "",
          "type": "uint256"
        }
      ],
      "payable": false,
      "stateMutability": "view",
      "type": "function"
    },
    {
      "constant": true,
      "inputs": [],
      "name": "getNbPoolsPending",
      "outputs": [
        {
          "name": "",
          "type": "uint256"
        }
      ],
      "payable": false,
      "stateMutability": "view",
      "type": "function"
    },
    {
      "constant": true,
      "inputs": [
        {
          "name": "index",
          "type": "uint8"
        }
      ],
      "name": "getMyPoolIdByIndex",
      "outputs": [
        {
          "name": "",
          "type": "uint16"
        }
      ],
      "payable": false,
      "stateMutability": "view",
      "type": "function"
    }
  ],
  "bytecode": "0x60806040526014600655336000806101000a81548173ffffffffffffffffffffffffffffffffffffffff021916908373ffffffffffffffffffffffffffffffffffffffff160217905550610ea7806100586000396000f3fe608060405234801561001057600080fd5b50600436106100b45760003560e01c80638da5cb5b116100715780638da5cb5b14610230578063b23a94c81461027a578063c98b9eb514610298578063d98a78d9146102bc578063f2fde38b14610316578063f3f437031461035a576100b4565b80634ecf4033146100b95780634ee4e534146100f757806352918b7614610129578063590a10b6146101475780635da927cc1461019457806378407f40146101ee575b600080fd5b6100f5600480360360408110156100cf57600080fd5b81019080803560ff169060200190929190803560ff1690602001909291905050506103b2565b005b6101276004803603602081101561010d57600080fd5b81019080803561ffff1690602001909291905050506104dd565b005b610131610639565b6040518082815260200191505060405180910390f35b6101766004803603602081101561015d57600080fd5b81019080803560ff169060200190929190505050610646565b604051808261ffff1661ffff16815260200191505060405180910390f35b6101c3600480360360208110156101aa57600080fd5b81019080803560ff1690602001909291905050506106ba565b604051808361ffff1661ffff1681526020018260ff1660ff1681526020019250505060405180910390f35b61021a6004803603602081101561020457600080fd5b810190808035906020019092919050505061079b565b6040518082815260200191505060405180910390f35b6102386107ba565b604051808273ffffffffffffffffffffffffffffffffffffffff1673ffffffffffffffffffffffffffffffffffffffff16815260200191505060405180910390f35b6102826107df565b6040518082815260200191505060405180910390f35b6102a0610971565b604051808260ff1660ff16815260200191505060405180910390f35b6102f8600480360360408110156102d257600080fd5b81019080803560ff169060200190929190803560ff1690602001909291905050506109c8565b604051808261ffff1661ffff16815260200191505060405180910390f35b6103586004803603602081101561032c57600080fd5b81019080803573ffffffffffffffffffffffffffffffffffffffff169060200190929190505050610b39565b005b61039c6004803603602081101561037057600080fd5b81019080803573ffffffffffffffffffffffffffffffffffffffff169060200190929190505050610c0f565b6040518082815260200191505060405180910390f35b600060016103be610639565b019050606060016040519080825280602002602001820160405280156103f35781602001602082028038833980820191505090505b509050838160008151811061040457fe5b602002602001019060ff16908160ff1681525050610420610d54565b60405180606001604052808461ffff1681526020018560ff1681526020018381525090506001819080600181540180825580915050906001820390600052602060002090600202016000909192909190915060008201518160000160006101000a81548161ffff021916908361ffff16021790555060208201518160000160026101000a81548160ff021916908360ff16021790555060408201518160010190805190602001906104d2929190610d7c565b505050505050505050565b6000809054906101000a900473ffffffffffffffffffffffffffffffffffffffff1673ffffffffffffffffffffffffffffffffffffffff163373ffffffffffffffffffffffffffffffffffffffff161461053657600080fd5b60006105458261ffff1661079b565b9050600654811161055557600080fd5b6060600460008461ffff1681526020019081526020016000208054806020026020016040519081016040528092919081815260200182805480156105ee57602002820191906000526020600020905b8160009054906101000a900473ffffffffffffffffffffffffffffffffffffffff1673ffffffffffffffffffffffffffffffffffffffff16815260200190600101908083116105a4575b5050505050905060008090505b815181101561063357600082828151811061061257fe5b6020026020010151905061062581610c27565b5080806001019150506105fb565b50505050565b6000600180549050905090565b6000600360003373ffffffffffffffffffffffffffffffffffffffff1673ffffffffffffffffffffffffffffffffffffffff16815260200190815260200160002060000160008360ff1660ff16815260200190815260200160002060000160009054906101000a900461ffff169050919050565b600080600360003373ffffffffffffffffffffffffffffffffffffffff1673ffffffffffffffffffffffffffffffffffffffff16815260200190815260200160002060000160008460ff1660ff16815260200190815260200160002060000160009054906101000a900461ffff16600360003373ffffffffffffffffffffffffffffffffffffffff1673ffffffffffffffffffffffffffffffffffffffff16815260200190815260200160002060000160008560ff1660ff16815260200190815260200160002060000160029054906101000a900460ff1691509150915091565b6000600260008381526020019081526020016000205442039050919050565b6000809054906101000a900473ffffffffffffffffffffffffffffffffffffffff1681565b6000606060018054905060405190808252806020026020018201604052801561082257816020015b61080f610e23565b8152602001906001900390816108075790505b50905060008090505b60018054905081101561096857600a6001828154811061084757fe5b906000526020600020906002020160010180549050101561095b576001818154811061086f57fe5b90600052602060002090600202016040518060600160405290816000820160009054906101000a900461ffff1661ffff1661ffff1681526020016000820160029054906101000a900460ff1660ff1660ff1681526020016001820180548060200260200160405190810160405280929190818152602001828054801561093a57602002820191906000526020600020906000905b82829054906101000a900460ff1660ff16815260200190600101906020826000010492830192600103820291508084116109035790505b50505050508152505082828151811061094f57fe5b60200260200101819052505b808060010191505061082b565b50805191505090565b6000600360003373ffffffffffffffffffffffffffffffffffffffff1673ffffffffffffffffffffffffffffffffffffffff16815260200190815260200160002060020160009054906101000a900460ff16905090565b6000806000905060008090505b600180549050811015610b2c5760019150600a600182815481106109f557fe5b9060005260206000209060020201600101805490501015610b1f578360ff1660018281548110610a2157fe5b906000526020600020906002020160000160029054906101000a900460ff1660ff161415610b1e5760008090505b60018281548110610a5c57fe5b906000526020600020906002020160010180549050811015610ae0578560ff1660018381548110610a8957fe5b90600052602060002090600202016001018281548110610aa557fe5b90600052602060002090602091828204019190069054906101000a900460ff1660ff161415610ad357600092505b8080600101915050610a4f565b508115610b1d5760018181548110610af457fe5b906000526020600020906002020160000160009054906101000a900461ffff1692505050610b33565b5b5b80806001019150506109d5565b5060009150505b92915050565b6000809054906101000a900473ffffffffffffffffffffffffffffffffffffffff1673ffffffffffffffffffffffffffffffffffffffff163373ffffffffffffffffffffffffffffffffffffffff1614610b9257600080fd5b600073ffffffffffffffffffffffffffffffffffffffff168173ffffffffffffffffffffffffffffffffffffffff161415610bcc57600080fd5b806000806101000a81548173ffffffffffffffffffffffffffffffffffffffff021916908373ffffffffffffffffffffffffffffffffffffffff16021790555050565b60056020528060005260406000206000915090505481565b6000809054906101000a900473ffffffffffffffffffffffffffffffffffffffff1673ffffffffffffffffffffffffffffffffffffffff163373ffffffffffffffffffffffffffffffffffffffff1614610c8057600080fd5b6000600560008373ffffffffffffffffffffffffffffffffffffffff1673ffffffffffffffffffffffffffffffffffffffff1681526020019081526020016000205490506000600560008473ffffffffffffffffffffffffffffffffffffffff1673ffffffffffffffffffffffffffffffffffffffff168152602001908152602001600020819055508173ffffffffffffffffffffffffffffffffffffffff166108fc829081150290604051600060405180830381858888f19350505050158015610d4f573d6000803e3d6000fd5b505050565b6040518060600160405280600061ffff168152602001600060ff168152602001606081525090565b82805482825590600052602060002090601f01602090048101928215610e125791602002820160005b83821115610de357835183826101000a81548160ff021916908360ff1602179055509260200192600101602081600001049283019260010302610da5565b8015610e105782816101000a81549060ff0219169055600101602081600001049283019260010302610de3565b505b509050610e1f9190610e4b565b5090565b6040518060600160405280600061ffff168152602001600060ff168152602001606081525090565b610e7891905b80821115610e7457600081816101000a81549060ff021916905550600101610e51565b5090565b9056fea165627a7a72305820fe62891dd2125b0af9c6d6f3c4d54c57774cf75f13e0f87df65c688df1adb4430029",
  "source": "pragma solidity >=0.4.25 <0.6.0;\n\nimport \"./Model.sol\";\n\ncontract Pool is Model {\n\n    Pool[] allPool;\n    mapping (uint => uint) poolCreationDate;\n    mapping (address => User) user;\n    mapping (uint => address payable[]) poolUsers;\n    mapping (address => uint) public pendingWithdrawals;\n\n    uint poolDuration = 20 seconds;\n\n    function incrementPool(uint8 exchange, uint8 poolType) public {\n        uint16 poolId = uint16(getNbPools() + 1);\n        uint8[] memory exchanges = new uint8[](1);\n        exchanges[0] = exchange;\n        Pool memory newPool = Pool(poolId, poolType, exchanges);\n        allPool.push(newPool);\n    }\n\n    function createPool(uint8 exchange, uint8 poolType) private returns(uint16)  {\n        uint16 poolId = uint16(getNbPools() + 1);\n        uint8[] memory exchanges = new uint8[](1);\n        exchanges[0] = exchange;\n        Pool memory newPool = Pool(poolId, poolType, exchanges);\n        allPool.push(newPool);\n        //updatePoolExchanges(exchange, poolId);\n        return poolId;\n    }\n    //add exchange in pool (max 10 exchanges by pool)\n    function updatePoolExchanges(uint8 exchange, uint16 poolId) private {\n        allPool[poolId-1].exchanges.push(exchange);\n    }\n    //join pool available\n    function joinPool(uint8 exchange, uint8 poolType) internal returns(uint16) {\n        uint16 poolAvailableId = findPoolAvailable(exchange, poolType);\n        if (poolAvailableId == 0) {\n            poolAvailableId = createPool(exchange, poolType);\n        } else {\n            updatePoolExchanges(exchange, poolAvailableId);\n        }\n\n        if (getPoolExchangesNb(poolAvailableId) == 3) {\n            startPool(poolAvailableId);\n        }\n        return poolAvailableId;\n    }\n\n    function findPoolAvailable(uint8 exchange, uint8 poolType) public view returns(uint16) {\n        bool poolFind = false;\n        for(uint i = 0; i < allPool.length; i++) {\n            poolFind = true;\n            // loop through pool's \"exchanges\"\n            if (allPool[i].exchanges.length < 10) {\n                // check if \"poolType\" matches\n                if (allPool[i].poolType == poolType) {\n                    for (uint y = 0; y < allPool[i].exchanges.length; y++) {\n                        // if \"exchange\" is already in pool set \"poolFind\" to false\n                        if (allPool[i].exchanges[y] == exchange) {\n                            poolFind = false;\n                        }\n                    }\n                    if (poolFind) {\n                        return allPool[i].id;\n                    }\n                }\n            }\n        }\n        return 0;\n    }\n\n    function startPool(uint16 poolId) private {\n        poolCreationDate[poolId] = now + poolDuration;\n    }\n\n    function endPool(uint16 poolId) external onlyOwner() {\n        uint remainingTimePool = getRemainingTimePool(poolId);\n        require(remainingTimePool > poolDuration);\n        address payable[] memory accounts =  poolUsers[poolId];\n        for (uint i=0; i<accounts.length; i++) {\n            address payable account = accounts[i];\n            withdraw(account);\n        }\n\n    }\n\n    function getRemainingTimePool(uint poolId) public view returns(uint time) {\n        return now - poolCreationDate[poolId];\n    }\n\n    function updateUserPools(uint8 exchange, uint16 poolId, uint8 index, address payable account) internal {\n        user[msg.sender].userPools[index] = UserPool(poolId, exchange);\n        user[msg.sender].userPoolsSize++;\n        poolUsers[poolId].push(account);\n    }\n\n    function withdraw(address payable account) private onlyOwner() {\n        uint amount = pendingWithdrawals[account];\n        pendingWithdrawals[account] = 0;\n        account.transfer(amount);\n    }\n\n    /*\n    GETTERS\n    */\n\n    function getUserPoolsNb() public view returns(uint8) {\n        return user[msg.sender].userPoolsSize;\n    }\n\n    function getUserPools(uint8 index) external view returns (uint16, uint8)\n    {\n        return (user[msg.sender].userPools[index].idPool, user[msg.sender].userPools[index].exchange);\n    }\n\n    function getNbPools() public view returns(uint) {\n        return allPool.length;\n    }\n\n    function getNbPoolsPending() public view returns(uint) {\n        Pool[] memory poolsPending = new Pool[](allPool.length);\n        for(uint i = 0; i < allPool.length; i++) {\n            if (allPool[i].exchanges.length < 10) {\n                poolsPending[i] = allPool[i];\n            }\n        }\n        return poolsPending.length;\n    }\n\n    function getPoolExchangesNb(uint poolId) private view returns(uint) {\n        for(uint i = 0; i < allPool.length; i++) {\n            if (allPool[i].id == poolId) {\n                return allPool[i].exchanges.length;\n            }\n        }\n        return 0;\n    }\n\n    function getMyPoolIdByIndex(uint8 index) public view returns(uint16) {\n        return user[msg.sender].userPools[index].idPool;\n    }\n}\n",
  "sourcePath": "/Users/anthonycohen/Projects/Insurance-pool/contracts/Pool.sol",
  "compiler": {
    "name": "solc",
    "version": "0.5.8+commit.23d335f2.Emscripten.clang"
  },
  "schemaVersion": "3.0.10",
  "updatedAt": "2020-02-09T11:31:44.535Z",
  "devdoc": {
    "methods": {}
  },
  "userdoc": {
    "methods": {}
  }
}